:0300830002027AFC
:10027A00C0E0C083C082C0D0C091A2AF9201C2AF19
:10028A0075C7AA75C755759100A20192AF53C4EFFD
:10029A00B297900001E004F0A3E004F0A2813000DC
:1002AA0001B34005A200B39200D091D0D0D082D041
:0402BA0083D0E032DB
:100149008D088B09E4F591EF24FE602124FE6025DA
:1001590024FC602924F8602D24F0603124E0603506
:1001690024C06039247F703B53C4F8803653C4F8E7
:1001790043C401802E53C4F843C402802653C4F8F3
:1001890043C403801E53C4F843C404801653C4F8FF
:1001990043C405800E53C4F843C406800653C4F80B
:1001A90043C407A2AF9201C2AF75C7AA75C755E488
:1001B900F591A20192AF53C4EF8508C68509C543DD
:0301C9009C022273
:10022400C200A2AF9201C2AF75C7AA75C755E4F563
:1002340091A20192AF53B37F53B47FA2AF9201C294
:10024400AF75C7AA75C755F591A20192AF53B1FD19
:1002540053B2FDFB7D207F10120149D2AFA2AF92B1
:1002640001C2AF75C7AA75C755E4F591A20192AF53
:0602740043C40880FE22D5
:10008600E4F591EF24F9600C14600E2402700D75EE
:10009600A638800875A630800375A630A2AF9201F7
:1000A600C2AF75C7AA75C755439F01A20192AFE4B7
:1000B600F5A775AF04A2AF9201C2AF75C7AA75C7FF
:1000C6005543A401A20192AFAEAE05A6A2AF92011E
:1000D600C2AF75C7AA75C75543A401A20192AFADB9
:1000E600AEA2AF9201C2AF75C7AA75C755539FFEA0
:1000F600A20192AFEF24F87023EE25E0FFE433FE71
:10010600ED54017C002FFFEC3EFE74F12FFF74FFCF
:100116003EFEEF5401FDEEC313EF13FE75C7AA753D
:10012600C7558E8475C7AA75C7558D85A2AF92012E
:10013600C2AF75C7AA75C755539FFEA20192AF53AA
:0201460087EF41
:010148002294
:1001CC00EF24FD60121460282402704B7F0212028F
:1001DC00BE7F02120003227F03120003A2AF920122
:1001EC00C2AF75C7AA75C7555397DFA20192AF224C
:1001FC007F021202BE7F021200037F041202BE7F36
:10020C0004120003A2AF9201C2AF75C7AA75C755FD
:08021C005397DFA20192AF220B
:1002BE00EF24FC60222402702FA2AF9201C2AF7510
:1002CE00C7AA75C755439720A20192AFE59644DFA2
:1002DE0064DF701480F62275C7AA75C7554397C0A0
:0902EE00E59644F764F760F8227C
:1002F700E4F591EF24FC60182402701DA2AF92016F
:10030700C2AF75C7AA75C7555397DFA20192AF222F
:0A03170075C7AA75C75553973F221A
:10000300E4F591A2AF9201C2AFEF24FD602F14601B
:100013005424027063A2AF9201C2AF75C7AA75C719
:10002300555396FBA20192AFA2AF9201C2AF75C71F
:10003300AA75C7555396FDA20192AF803BA2AF921A
:1000430001C2AF75C7AA75C755439604A20192AF03
:10005300A2AF9201C2AF75C7AA75C7555396FDA249
:100063000192AF8013A2AF9201C2AF75C7AA75C741
:0D00730055439608A20192AFA20192AF2260
:03000000020321D7
:10032100787FE4F6D8FD9000007FFF7E03E4F0A320
:0A033100DFFCDEFA758120020224D1
:00000001FF
